:100000000C942A000C943C000C943C000C943C0092
:100010000C943C000C943C000C943C000C944C0060
:100020000C943C000C943C000C943C000C943C0060
:100030000C943C000C943C000C943C000C943C0050
:100040000C943C000C943C000C943C000C943C0040
:100050000C943C0011241FBECFE5D8E0DEBFCDBF1D
:1000600020E0A0E6B0E001C01D92A136B207E1F7A2
:100070000E946E000C9472000C9400008EB5896092
:100080008EBD1DBC1CBC8FE19EE49BBD8ABD89B7A3
:10009000806189BF789408951F920F920FB60F92D6
:1000A00011248F939F9380916000882341F01092D8
:1000B0006000C69A87EF9AE29BBD8ABD08C081E0C6
:1000C00080936000C6988FE097E29BBD8ABD9F91A8
:1000D0008F910F900FBE0F901F901895BE9A0E949F
:0800E0003E00FFCFF894FFCFB2
:00000001FF
