:100000000C942A000C943C000C943C000C943C0092
:100010000C943C000C943C000C943C000C943E006E
:100020000C943C000C943C000C943C000C943C0060
:100030000C943C000C943C000C943C000C943C0050
:100040000C943C000C943C000C943C000C943C0040
:100050000C943C0011241FBECFE5D8E0DEBFCDBF1D
:1000600020E0A0E6B0E001C01D92A136B207E1F7A2
:100070000E9460000C9477000C9400001F920F9275
:100080000FB60F9211248F939F9380916000882365
:1000900041F010926000C69A87EC92E39BBD8ABD46
:1000A00008C081E080936000C69887E59BE19BBD16
:1000B0008ABD9F918F910F900FBE0F901F90189542
:1000C000BE9A0E946400FFCF8EB581608EBD8EB552
:1000D00088608EBD1DBC1CBC8FE19EE49BBD8ABDAB
:1000E00089B7806189BF8FB780688FBF0895F89402
:0200F000FFCF40
:00000001FF
